:020000040800F2
:10000000F00F00207D02000885020008870200082A
:10001000890200088B0200088D0200080000000021
:100020000000000000000000000000008F02000837
:10003000910200080000000093020008D50E00089D
:10004000970200089702000897020008970200082C
:10005000970200089702000897020008970200081C
:10006000970200089702000897020008970200080C
:1000700097020008970200089702000897020008FC
:10008000970200089702000897020008000000008D
:1000900000000000000000000000000097020008BF
:1000A00097020008970200089702000897020008CC
:1000B000F90F00089702000897020008970200084D
:1000C00097020008970200089702000897020008AC
:1000D000970200089702000897020008000000003D
:1000E000970200089702000897020008000000002D
:1000F000000000000000000000000000970200085F
:10010000000000009702000897020008970200080C
:1001100000000000000000000000000000000000DF
:10012000970200089702000897020008970200084B
:10013000970200080000000000000000000000001E
:10014000000000000000000000000000970200080E
:10015000970200089702000897020008970200081B
:10016000970200089702000800000000000000004D
:10017000000000000000000000000000000000007F
:1001800000000000970200080000000000000000CE
:100190009702000800F002F800F060F80AA090E86A
:1001A000000C82448344AAF10107DA4501D100F032
:1001B00055F8AFF2090EBAE80F0013F0010F18BF9F
:1001C000FB1A43F001031847F4100000141100005B
:1001D0000A4410F8013B13F0030408BF10F8014B68
:1001E0001D1108BF10F8015B641E05D010F8016BEB
:1001F000641E01F8016BF9D1002D15D010F8014BE8
:1002000003F00C030C2BA1EB04040ABF10F8013B14
:10021000A4EB8314A4EB032405F1010314F8016B90
:100220005B1E01F8016BF9D5914238BF10F8013B14
:10023000D1D370470023002400250026103A28BFA0
:1002400078C1FBD8520728BF30C148BF0B60704748
:100250001FB501F01DF81FBD10B510BD00F0D4F89A
:100260001146FFF7F5FF00F09BFF00F0F2F803B432
:10027000FFF7F2FF03BC00F0F5F8000009488047E3
:1002800009480047FEE7FEE7FEE7FEE7FEE7FEE778
:10029000FEE7FEE7FEE7FEE704480549054A064B90
:1002A00070470000E50F000895010008F0090020E4
:1002B000F00F0020F00B0020F00B002053EA020C9E
:1002C00000F069802DE9F04B4FF00006002B1FBFB6
:1002D000B3FA83F503FA05F424FA05F65E4012BF7B
:1002E0001643B2FA82F502FA05F4C5F120051EBFE5
:1002F00022FA05FC44EA0C04203556EA044C4FEA85
:10030000144418BF641C4FF000084FF000099042DD
:1003100071EB030C39D3002919BFB1FA81F701FA47
:1003200007F6B0FA80F700FA07F6C7F120071EBFFC
:1003300020FA07FC46EA0C062037B6FBF4FCA7EBD4
:100340000507103F07F01F0BCBF120062CFA06F62D
:100350000CFA0BFB44BFB3460026202FA4BF5E4619
:100360004FF0000B5BEA060C08BF4FF0010B19EBD6
:100370000B0948EB0608ABFB027C06FB02CC0BFB2F
:1003800003CCC01B71EB0C01C1E70B460246414692
:100390004846BDE8F08B13B5084318BF4FF0FF3057
:1003A0000146AFF30080BDE81C4070474FF00002EB
:1003B00000B5134694469646203922BFA0E80C505B
:1003C000A0E80C50B1F12001BFF4F7AF090728BF36
:1003D000A0E80C5048BF0CC05DF804EB890028BFB2
:1003E00040F8042B08BF704748BF20F8022B11F0DB
:1003F000804F18BF00F8012B704770477047704757
:1004000000487047800900207546FFF7F9FFAE46A7
:1004100005006946534620F00700854618B020B510
:10042000FFF73AFFBDE820404FF000064FF000070D
:100430004FF000084FF0000BAC46ACE8C009ACE848
:10044000C009ACE8C009ACE8C00921F007018D463D
:10045000704710B50446AFF300802046BDE8104059
:10046000FFF705BF01491820ABBEFEE726000200DA
:100470007047000072B600BFFEE70000B0B504464A
:1004800000F0E4F8054640F67010C2F20000007873
:10049000611C18BF044400BF00F0D8F8401BA04204
:1004A000FAD3B0BD2DE9F04F83B000F13E4202F126
:1004B000FF724FEAB22241F200070192C4F2020732
:1004C00007224FF0010E00254FF0000A4FF0000800
:1004D000B84208BF042200920AE000BF08F10108F8
:1004E0000AF1040AB8F1100F05F1020500F0A4802A
:1004F0000C680EFA08FB14EA0B09EFD04C6804F004
:10050000030CACF1010EBEF1010F11D80322876874
:1005100002FA05F6CA68B743AA403A4382604268C5
:10052000C4F3001722EA0B0207FA08F73A434260C5
:10053000BCF1030F1CD0C26803238E6803FA05F7D1
:10054000BA4306FA05F73A43BCF1020FC2600FD175
:100550006FF0030202EA580202440AF01C060F235D
:10056000176A03FA06F40B69A743B3403B431362CF
:10057000026803234F68AB409A4307F00303AB4084
:100580001A4317F4403F4FF0010E0260A6D000223C
:1005900043F644030292C4F202031A6843F600448D
:1005A00042F480421A601A68C4F2010402F48042E4
:1005B0000292029A28F003024FF6084B2244CFF62B
:1005C000FF7B52F80B300AF00C070F26BE4023EADF
:1005D000060C019B009E042B38BF1E4606FA07F747
:1005E00047EA0C0342F80B30A2684B6842EA09075D
:1005F00043F60C4CDE0258BF22EA0907A760C4F29A
:10060000010CDCF800209E0242EA090758BF22EAEA
:100610000907CCF8007062689E0342EA090758BFD8
:1006200022EA090767602268DB0342EA090358BF30
:1006300022EA0903236051E703B0BDE8F08F000010
:10064000002A08BF090481617047000040F6E810E5
:10065000C2F200000068704740F6701040F6E811E2
:10066000C2F20000C2F2000100780A68104408607B
:100670007047000080B543F60040C4F202000168F4
:1006800041F400710160016841F480610160032060
:1006900000F042F80F2000F005F800F02BF80020E1
:1006A00080BD0000B0B540F67012C2F2000240F208
:1006B00000011278C2F200014FF47A730968B3FBAB
:1006C000F2F20446B1FBF2F1084600F0B1FA0F2C49
:1006D0004FF001050CD858B94FF0FF3021460022E9
:1006E000002500F009F840F67410C2F20000046022
:1006F0002846B0BD7047000070B514460D4606464A
:1007000000F002FD2946224600F0B6FB01463046C5
:1007100000F002FD70BD000080B500F00FFD80BD4F
:100720002DE9F041002800F08B8043F60808C4F260
:1007300002080446D8F8F8030D4600F00700884286
:1007400007D288F8F853D8F8F80300F00700A84259
:1007500076D12068810717D5410705D5D8F8001054
:1007600041F4E051C8F80010010705D5D8F8001091
:1007700041F46041C8F80010D8F80010A26821F0D8
:10078000F0011143C8F80010C0073FD1D8F8F803B2
:1007900000F00700A84207D988F8F853D8F8F80302
:1007A00000F00700A8424BD12068410707D5D8F8D0
:1007B0000010E26821F4E0511143C8F8001000076E
:1007C00008D5D8F80000216920F4604040EAC10053
:1007D000C8F8000000F054F8D8F8001041F2AA223E
:1007E000C1F30311C0F60002515C40F2000220FA8E
:1007F00001F140F67410C2F200000068C2F200027B
:100800001160FFF74FFF0020BDE8F0816068811E96
:10081000022907D258F8081C89015CBF0120BDE8F5
:10082000F08110E0012807D158F8081C89035CBF4B
:100830000120BDE8F08106E058F8081C890702D4C1
:100840000120BDE8F081D8F8001021F00301084331
:10085000C8F80000FFF7FAFE064641F2883700BFED
:10086000D8F80000616800F00C00B0EB810F8DD06B
:10087000FFF7ECFE801BB842F2D90320BDE8F081FF
:1008800010B543F60404C4F20204606800F00C00E2
:1008900008280AD0042819BF42F20040C0F2F40030
:1008A00047F64000C0F27D1010BD20682168236823
:1008B000490247F64001C0F27D1100F03F02C3F348
:1008C00088105CBF42F20041C0F2F401A1FB0001BC
:1008D0000023FFF7F3FC21680222C1F3014102EB80
:1008E0004101B0FBF1F010BD2DE9F04182B00028CC
:1008F00000F0A2800446007843F60006C007C4F268
:10090000020643D0B06800F00C00042805D130681E
:1009100080033BD56068C8BB8EE0B06800F00C0077
:10092000082802D170684002F1D46568B5F5A02F9F
:100930000AD0B5F5803F0BD0306820F480303060AD
:10094000306820F4802006E0306840F48020306079
:10095000306840F480303060FFF778FE002D0546A7
:1009600011D000BF3068800310D4FFF76FFE401B2A
:100970006428F7D922E100BFFFF768FE401B642816
:100980004FF0030055D830688003F5D420788007F5
:100990001AD5B06810F00C0F09D0B06800F00C0048
:1009A000082840F08A807068400200F18680306834
:1009B000800702D5E06801283ED13068216920F027
:1009C000F80040EAC10030602078000738D4207871
:1009D00040074CD4A5695DB3B06800F00C0008284E
:1009E00040F09E80012D27D07068E16900F48002FC
:1009F0008A4221D1216A00F03F028A421CD147F687
:100A0000C071626A0140B1EB821F15D1A26A002356
:100A1000CFF6FF7303EBC23200F440316FF30F02E5
:100A2000914209D1E16A00F07060B0EB016F03D12F
:100A3000002002B0BDE8F081012002B0BDE8F081E5
:100A40006069002840F20000C4F2472057D001211D
:100A5000C0F8801EFFF7FAFD054600BF706F8007E3
:100A6000B5D4FFF7F3FD401B0228F7D9A6E0306CA0
:100A700010F080580AD100200190306C40F0805076
:100A80003064306C00F080500190019847F200070C
:100A9000C4F200073868C00524D4386840F4807078
:100AA0003860FFF7D3FD05463868C0051AD4FFF754
:100AB000CDFD401B0228F7D980E0E068002851D026
:100AC0000020C4F2472001210160FFF7BFFD054669
:100AD000306880073FF571AFFFF7B8FD401B022873
:100AE000F6D96BE0A568052D50D0012D52D0306F9E
:100AF00020F001003067306F20F004004DE000214D
:100B0000C0F8801EFFF7A2FD054600BF706F80078A
:100B10007FF55DAFFFF79AFD401B0228F6D94DE047
:100B20000027C4F2472700203866FFF78FFD022D0B
:100B300005460BD13068800158D5FFF787FD401B73
:100B400002284FF00300F5D973E700BF3068800139
:100B50007FF56EAFFFF77AFD401B02284FF00300D0
:100B6000F4D966E70020C4F2472000210160FFF7B6
:100B70006DFD0546306880077FF526AFFFF766FDFF
:100B8000401B02284FF00300F4D952E7306F40F0C9
:100B900004003067306F40F001003067FFF756FD0A
:100BA000002D054641F2883714D000BF306F800712
:100BB00013D4FFF74BFD401BB842F7D9032002B016
:100BC000BDE8F081FFF742FD401BB8424FF0030043
:100BD0003FF62FAF306F8007F4D4B8F1000F7FF4E9
:100BE000F9AE306C20F080503064F3E604F11C055F
:100BF0002FCD08430021CFF6FF7140EA821001EBB0
:100C0000C3316FF30F0140EA0560084370600120B3
:100C10003866FFF71BFD0446306880013FF508AFDA
:100C2000FFF714FD001B02284FF00300F4D900E782
:100C300080B500F037F980BD80B5012000F004F8E0
:100C4000052000F047F880BD10B504460020C4F22E
:100C500002004FF400710022FFF7F2FC200900F0BF
:100C600005F804F00F0000F001F810BDB0B540F237
:100C700000440546C4F20204A4F5806005F00802B1
:100C80004FF48071FFF7DCFC05F0040220464FF4BE
:100C90008061FFF7D5FC05F0020220461021FFF726
:100CA000CFFC05F0010220462021FFF7C9FC04F526
:100CB0008064204680210122FFF7C2FC322000F030
:100CC0000DF8204680210022FFF7BAFC322000F008
:100CD00005F8B0BD80B5FFF7D1FB80BD2DE9F0432D
:100CE00081B04EF21808CEF2000858F8041C44F601
:100CF000D3520131C1F26202A1FB021204469709EC
:100D0000FFF7A4FCD8F800100546B1FBF7F64FF446
:100D10007A7900BFFFF79AFCD8F80010401BB1FBAE
:100D2000F7F1711A00FB0910A042F3D301B0BDE83E
:100D3000F083000080B540F6E010C2F200000178B8
:100D400041F00402027041F00C00C0B2FFF77CFFDA
:100D500080BD00002DE9F04385B0022000250390FE
:100D60004FF40070C4F202056E464FF001084FF0D8
:100D70000009009028463146CDF80480CDF808904F
:100D8000FFF790FB8020009005F500603146FFF7EB
:100D900089FB0820009028463146FFF783FB05F5C4
:100DA00080672024384631460094FFF77BFB1020F3
:100DB000009038463146FFF775FB4FF48060009095
:100DC00038463146FFF76EFB4FF48070009028469E
:100DD0003146FFF767FBFFF739FCC72807D800BF8C
:100DE0000120FFF777FFFFF731FCC828F8D340F662
:100DF000E210C2F2000080F8009040F6E310C2F268
:100E0000000040F6E11580F80090C2F200050320D2
:100E100085F80080FFF72AFF0520FFF75BFF03201E
:100E2000FFF724FF0520FFF755FF0320FFF71EFF04
:100E30000520FFF74FFF0220FFF718FF0520FFF7FF
:100E400049FF2878002818BF28242046FFF7FCFE19
:100E500040F6E010C2F2000004210170FFF76AFFC3
:100E6000FFF7EAFE0620FFF7EFFE0520FFF732FF4F
:100E700005B0BDE8F083000000F0070080F0070334
:100E8000042B28BF04234FF0FF3C03380CFA03F374
:100E900038BF0020994381400CFA00F022EA00009C
:100EA00008437047B0B501380024B4EB106F1CBF85
:100EB0000120B0BD4EF21005CEF2000568604FF083
:100EC000FF300F2100F028F90720AC602860204691
:100ED000B0BD000080B5FFF7BFFB80BDB0B592B0DC
:100EE00006AC20463021FFF761FA002543F64000AA
:100EF0000595CDE90355CDE901550095C4F20200F1
:100F00000168022241F080510160006800F08050C9
:100F10000090009847F200000095C4F200000168BC
:100F200062F38F310160006800F440400090009847
:100F30000120099010200A90204606920C95FFF798
:100F4000D3FC68B90F20CDE9010501A80021CDE946
:100F500003550595FFF7E4FB002804BF12B0B0BDB0
:100F6000FFF788FA43F60400C4F20200416801F07A
:100F70000C0242F20041082AC0F2F40106D0042A11
:100F80001DD147F64001C0F27D1118E002680368E8
:100F9000520247F64002C0F27D1203F03F0358BFF1
:100FA0000A460168B2FBF3F20368C1F388115143AA
:100FB000C3F30142022303EB4202B1FBF2F140F220
:100FC0000002C2F200021160406841F2AA21C0F39F
:100FD0000310C0F60001085C116821FA00F01060EF
:100FE000704700004EF68850CEF20000016841F4D0
:100FF00070010160704700001020C4F20000002161
:10100000016040F67810C2F200000068411E40F214
:101010002C300529C2F200003BD8DFE801F0030BB9
:10102000131B232B01684A1C026040F2C042C2F22B
:10103000000226E001684A1C026040F25062C2F2DF
:1010400000021EE001684A1C026040F2E072C2F237
:10105000000216E001684A1C026040F20802C2F277
:1010600000020EE001684A1C026040F29C12C2F2CB
:10107000000206E001684A1C026040F23032C2F20F
:10108000000202EB4101098840F61402C4F2020298
:1010900011600168C82904BF002101607047000089
:1010A00080B543F64000C4F20200016841F001013E
:1010B000016040F29810C2F200000068C821484365
:1010C00041F20021C0F27A0191FBF0F00C210138CD
:1010D000C4F20001C861C720086200208861086866
:1010E00040F0010008604FF080400121016000F0F5
:1010F00003F862B680BD00004EF20010CEF2000090
:101100004FF08051016070474EF60C50CEF2000057
:101110000068C0F3022070474EF6145300F00F022F
:10112000CEF2000309011A4400F16043B0F1FF3F21
:10113000C8BF03F564421170704700004EF60C51B1
:10114000CEF200010A684FF6FF031A4060F30A224C
:1011500042F0806040F0FD700860704743F6300058
:10116000C4F20200016841F0010101600021C4F2F3
:1011700002010A6822F00C020A600A6842F00C02BE
:101180000A60416941F48071416142F20800C4F291
:10119000010000210160016841F001010160704718
:1011A00084B00024C4F20204FFF7DCFEFFF762FA09
:1011B0004FF0000843F63006CDF80C80C4F202066A
:1011C000306840F001003060306800F001000390AA
:1011D0000398CDF80880306840F002003060306835
:1011E00000F0020002900298CDF80480306840F0D0
:1011F00004003060306800F0040001900198FFF7AF
:101200006DFE306840F001003060306840F0020050
:101210003060306840F0040030604FF0553020609E
:10122000C4F80008FFF796FDFFF798FF40F22C3650
:1012300040F67817C2F20006C2F20007032500BF8D
:10124000FFF72EFF20690006FCD5C6F8008072B6B5
:101250003D6000F003F800F001F8F1E740F6E4101B
:10126000C2F20000016849B140F20401C2F200017B
:1012700042F210720A6000210160704740F298113A
:10128000C2F200014FF4FA720A6001210160704756
:10129000F1EE100A4FF6FF71C0F2C03120EA0100F2
:1012A00040F04070E1EE100A7047000000000000BE
:1012B000000001020304060708090000E01200080C
:1012C0000000002080090000D0010008601700081D
:1012D00080090020700600003402000800000000B1
:1012E00010600024F40000100000640067006A0031
:1012F0006D007000730077007A007D00800083002D
:10130000860088008B008E00910094009600990062
:101310009C009E00A100A300A500A800AA00AC00AC
:10132000AE00B000B200B400B600B800B900BB0017
:10133000BC00BE00BF00C000C100C200C300C400AA
:10134000C50212C602B2C7022112211A12C4241207
:10135000C22C12C03412BE3C12BB4412B84C12B4A0
:101360005412B05C12AC6412A86C12A374129E7C6E
:1013700012998412948C128E9412889C1283A41257
:101380007DAC1277B41270BC126AC401C6C8259431
:101390000225960203242C01020225B402032458DC
:1013A00002020225EE02032484030203241A04022B
:1013B0000225B00203244605020225DC0223C800F0
:1013C00001141E01000200030004000500060007CE
:1013D00000080009000A000B000C000D000E000FB1
:1013E000B71CA611001200130014001500160017F8
:1013F00000180019001A001B001C001D001E001F11
:1014000000200021002200230024002500260027C0
:1014100000280029002A002B002C002D002E002F70
:101420000030003100320033003400350036003720
:1014300000380039003A003B003C003D003E003FD0
:101440000040004100420043004400450046004780
:1014500000480049004A004B004C004D004E004F30
:1014600000500051005200530054005500560057E0
:1014700000580059005A005B005C005D005E005F90
:10148000006000610062006328031C046500662C94
:10149000031C0468006930031C046B006C34031CDB
:1014A000046E006F38031C047100723C031C067448
:1014B0000075007642031C0478007946031C047B07
:1014C000007C4A031C047E007F4E031C04810082C2
:1014D00052031C0484008556031E8758031C04898C
:1014E000008A5C031C048C008D60031C048F009038
:1014F00064031C0492009368031E956A031C0497FE
:1015000000986E031C049A009B72031E9D74031CBA
:10151000049F00A078031EA27A031EA47C031C046F
:10152000A600A780031EA982031EAB84031EAD86FE
:10153000031EAF88031EB18A031EB38C031EB58E33
:10154000033EB790033EBA9203FEBD5C042D9003A8
:101550000DC8B8041661A0165BB01655C2164ED25F
:101560001648E21642F01A3D001A37101A321E1AB7
:101570002C2C1A273A1A23481A1E541A1A601A16C3
:101580006C1A12781A0F821A0C8C1A09941A079C7A
:101590001A05A4120302120202B201022112FA0376
:1015A000C429C229C01A12BC1A16B81A1AB41A1EB3
:1015B000B01A23AA1A27A41A2C9E1A32981A379006
:1015C0001A3D881A42821A487A1A4E721A55681AB7
:1015D0005B6003C661000102C5C702160FC41E2D61
:1015E0003E041E4B06041E69CE031E87C8071EA5B7
:1015F000B2071C0EC300D200E100F000FF000E0194
:101600001D1C061C263B014A015901680177018611
:10161000019501A401B301C201D101E001EF01FE76
:10162000010D021C022B023A0249F4051C1267024A
:10163000760285029402A302B202C102D002DF0642
:10164000061C12FD020C031B032A0339034803572F
:1016500003660375F0051C129303A203B103C003D4
:10166000CF03DE03ED03FC030BB8051C122904387D
:1016700004470456046504740483049204A1CA0553
:101680001C12BF04CE04DD04EC04FB040A0519059A
:1016900028053790051C12550564057305820591D0
:1016A00005A005AF05BE05CD7E0512CD0812AF1011
:1016B0001291181273201E55DC05123730100619CE
:1016C000050A05FB4012DD481EBFF60512A158129F
:1016D00083601265681247701E29540610040B04BB
:1016E000FC8412DE8C12C09412A29C1284A4126696
:1016F000AC1248B4122ABC1C040C03FDAA0612DF6B
:10170000D012C1D812A3E01285E81E67080712495B
:10171000F8162B0014040D02FE0C16E01416C21C61
:1017200016A42416862C166834164A3C162C44142B
:10173000040E01FF5016E1581EC3FA071EA5E40768
:101740001E873E051E697E051E4BBE051E2DB0037D
:101750003E0F88033D6F091300FF0129E4000000DC
:040000050800019559
:00000001FF
