:020000040800F2
:10000000E80600204D0200085502000857020008CB
:10001000590200085B0200085D02000800000000B1
:100020000000000000000000000000005F02000867
:10003000610200080000000063020008E11B0008E4
:1000400067020008670200086702000867020008EC
:1000500067020008670200086702000867020008DC
:1000600067020008670200086702000867020008CC
:1000700067020008670200086702000867020008BC
:10008000670200086702000867020008000000001D
:1000900000000000000000000000000067020008EF
:1000A000670200086702000867020008670200088C
:1000B000670200086702000867020008670200087C
:1000C000670200086702000867020008670200086C
:1000D00067020008670200086702000800000000CD
:1000E00067020008670200086702000800000000BD
:1000F000000000000000000000000000670200088F
:10010000000000006702000867020008670200089C
:1001100000000000000000000000000000000000DF
:10012000670200086702000867020008670200080B
:10013000670200080000000000000000000000004E
:10014000000000000000000000000000670200083E
:1001500067020008670200086702000867020008DB
:1001600067020008670200080000000000000000AD
:10017000000000000000000000000000000000007F
:1001800000000000670200080000000000000000FE
:100190006702000800F002F800F049F80AA090E8B1
:1001A000000C82448344AAF10107DA4501D100F032
:1001B0003EF8AFF2090EBAE80F0013F0010F18BFB6
:1001C000FB1A43F001031847C4320000E432000078
:1001D000103A24BF78C878C1FAD8520724BF30C873
:1001E00030C144BF04680C60704700000023002445
:1001F00000250026103A28BF78C1FBD8520728BF37
:1002000030C148BF0B607047662903F0E7800020CB
:1002100070471FB503F0D5F800F0CAFB04000020BA
:10022000002102F045FCE0601FBD10B510BD00F0DC
:10023000BFFC1146FFF7EDFF01F08EFD00F0DDFC85
:1002400003B4FFF7F2FF03BC00F020FD094880472C
:1002500009480047FEE7FEE7FEE7FEE7FEE7FEE7A8
:10026000FEE7FEE7FEE7FEE704480549054A064BC0
:1002700070470000F11C000895010008E80000200C
:10028000E8060020E8020020E802002053EA020C01
:1002900000F069802DE9F04B4FF00006002B1FBFE6
:1002A000B3FA83F503FA05F424FA05F65E4012BFAB
:1002B0001643B2FA82F502FA05F4C5F120051EBF15
:1002C00022FA05FC44EA0C04203556EA044C4FEAB5
:1002D000144418BF641C4FF000084FF0000990420E
:1002E00071EB030C39D3002919BFB1FA81F701FA78
:1002F00007F6B0FA80F700FA07F6C7F120071EBF2D
:1003000020FA07FC46EA0C062037B6FBF4FCA7EB04
:100310000507103F07F01F0BCBF120062CFA06F65D
:100320000CFA0BFB44BFB3460026202FA4BF5E4649
:100330004FF0000B5BEA060C08BF4FF0010B19EB06
:100340000B0948EB0608ABFB027C06FB02CC0BFB5F
:1003500003CCC01B71EB0C01C1E70B4602464146C2
:100360004846BDE8F08B13B5084318BF4FF0FF3087
:100370000146AFF30080BDE81C4070470FB41CB5C8
:10038000074B06AA7B4469460090059800F0F7FAEF
:100390000020694600F006FB1CBC5DF814FB000061
:1003A0001D0600002DE9F0474FF0000A894604467B
:1003B000C0F820A02046E1688847002876D025288C
:1003C00006D0D4E901219047206A401C2062F1E761
:1003D000E168204600268847C4F81CA0054600278F
:1003E000C4F818A02A2D09D0284602F059FB38B3CA
:1003F00004EB8708303DC8F8185019E059F8041B81
:10040000204604EB87029161E1688847012F054689
:1004100018D1E069002820DA26F020061DE0D8F87F
:10042000180000EB800005EB40003038C8F81800D9
:100430002046E1688847054602F032FB0028EED1ED
:10044000012F0AD02E2D08D12046E16888477F1C55
:100450000546022F46F02006C4DBA069002803DA17
:10046000404246F00106A061F00701D026F01006D8
:100470006C2D0AD0682D08D04C2D39D06A2D35D07E
:10048000742D35D07A2D33D016E0E1682F46204602
:100490008847B84205460AD16C2F27D04FF48060B8
:1004A000E168064320468847054605E027E06C2FB3
:1004B0001AD04FF4807006430DB3A5F141001928FE
:1004C00002D8203546F400664A4629462046266072
:1004D0004E46FFF799FE80B101280BD0F61D26F09D
:1004E000070000F1080965E74020E4E78020D7E72E
:1004F0000020D5E706F104095CE7284661E7206A99
:10050000BDE8F0874FF0000200B5134694469646CA
:10051000203922BFA0E80C50A0E80C50B1F1200116
:10052000BFF4F7AF090728BFA0E80C5048BF0CC0C4
:100530005DF804EB890028BF40F8042B08BF704722
:1005400048BF20F8022B11F0804F18BF00F8012B94
:1005500070477047704770472DE9FF4F0C461E46A5
:100560004FF0FF378BB0D2E90001DDF860800A90D0
:100570008A46C1F30A5505B93D46002108464FF0A9
:100580000000BAF1000F00F4400005DA00EB800033
:100590004FF4400101EA50004FEA9059B9F1010FC0
:1005A00000DDB9460A9850EA4A000ED044F61050D1
:1005B000A5F2FF3545432F14B8F1000F1ED0754248
:1005C000291E1EDDC9F100021CE0B8F1010F4FF039
:1005D000000001D0302103E0F24305E02154401C2B
:1005E000B042FBDB30460022002121540B99C1F8B8
:1005F0000880C1E900200FB0BDE8F08FBD1B6D1C65
:10060000DEE74A4600DA694206A800F05BFA06AB6C
:1006100093E8070003AB83E8070050460A9901F00E
:100620005FFE8DE80700A0F500501F38009003988A
:10063000002D0ADD42F21F014A460844002303A9A7
:100640000390684602F0C8F809E0A0F500504A4659
:100650001F38002303A90390684602F0D2F88DE802
:1006600007000004000C03D04FF0FF30410800E009
:100670001046B8F1000F03D00022009215461EE08C
:10068000751E05D400F098F9303262556D1EF9D50B
:10069000B3460122084302D000227F1C04E02078E8
:1006A000302801D100227F1E002A099784D01DE046
:1006B000112D07DA00F080F9303262556D1C50EAD6
:1006C0000102F5D1084302D00098C8B10EE0002124
:1006D000681E05E0235C625C63542254401E491C82
:1006E0008142F7DBAB46A81B401E0990002004F8AE
:1006F0000B000B98099AC0F80880C0E9002B7AE734
:1007000011264FF0000857E72DE9F04F88460446C0
:10071000D21D22F0070191B0D1E90001CDE90A0113
:1007200002F0A6F902460B98C00F01D02D2007E079
:100730002068810701D52B2002E0202101EAC000BA
:10074000032A099001D0072A05DB034641462046CB
:1007500000F078F90BE12078800601D5E06900E02F
:100760000620B8F1650F814606D0B8F1660F18D0A3
:10077000B8F1670F70D131E00020B9F1110F00908E
:1007800001DB112301E009F101030AAA01A90CA868
:10079000FFF7E2FEDDE90C70002609F10105834652
:1007A00047E001204B4600904FF000470AAA01A9FC
:1007B0000CA8FFF7D1FEDDE90DB00C995D460026CF
:1007C00010B909F101000D18B9EB050003D4C0F10F
:1007D000FF3609F10105A5EB09002BE0B9F1010F86
:1007E00001DA4FF001090020B9F1110F00904846DD
:1007F00001DD112300E003460AAA01A90CA8FFF7B6
:10080000ABFEDDE90C704D460026834620780007DC
:100810000AD4AB4500DA5D4601A8012D04DD41197B
:1008200011F8011C302907D04F4502DA17F1040FE7
:1008300004DA012082460FE06D1EEEE7002F02DC95
:10084000ED1B3E4403E0781CA84200DD7D1CB81B74
:1008500000F1010A4FF000472078000703D4AA45B1
:1008600001DB4FF0FF3A0021B7F1004F0DF14308D3
:100870008DF8431024D002202B23002F01DA7F4271
:100880002D230A21021EA0F1010000DC5FB197FBBD
:10089000F1FC97FBF1F201FB1C7C17460CF1300CCC
:1008A00008F801CDEEE7A8F10100037021880905E1
:1008B00001D5452100E06521A0F1010800F8011CE7
:1008C00009980FA9A1EB0807FF1D00B101204119EC
:1008D00001EBEA70A1693844081A401EA061207833
:1008E000C00602D42046AFF30080099828B1D4E9AD
:1008F00001219047206A401C20622078C00622D542
:100900002046AFF300801EE0002E04DBB34502DD7D
:1009100001A8805D00E03020D4E901219047206AE1
:10092000401C2062761CAAF101005FEA000A0AD18D
:1009300000F03EF8C0680168405CD4E901219047AE
:10094000206A401C2062281EA5F10105DCDC07E0BE
:10095000D4E9012118F8010B9047206A401C20625D
:10096000381EA7F10107F3DC2046AFF30080032017
:1009700011B041E601694A1C02610878704700B570
:100980008FB0CDE901310021059105497944CDE9C8
:10099000031011466846FFF705FD0FB000BD0000CB
:1009A000E5FFFFFF0A6802F8010B0A6070470000CC
:1009B000004870473000002030B5B0F10A0271F1F4
:1009C00000034FEA900E4EEA817EB0EB0E0061EB21
:1009D00091014FEA101E4EEA017E10EB0E0041EB32
:1009E00011114FEA102E4EEA016E10EB0E0041EB92
:1009F00011214FEA104E4EEA014E10EB0E0041EB72
:100A00001141401841F100014FEAD00040EA417025
:100A10004FEAD1014FEA810444EA907410EB80055B
:100A200044EB01046D1944EB0404521BA3414FF045
:100A3000000348BF0A3200D530BD401C41F100011F
:100A400030BD00002DE9F0411F4604460326016831
:100A5000072A01F4006004DB08B116A505E016A51D
:100A600003E008B115A500E015A521F010002060F5
:100A7000A069C01EA0610FB1401EA0612046AFF367
:100A800000804FB1D4E9012138469047206A401CCC
:100A90002062C01C206206E0206AFAE7D4E9012146
:100AA00015F8010B9047761EF8D22046AFF3008070
:100AB000BDE8F0814E414E006E616E00494E460029
:100AC000696E66002DE9F047814616468AB03548C2
:100AD00078440DC88DE80D0032487844801C03AC82
:100AE0000DC884E80D0041F69B300844372190FB87
:100AF000F1F290FBF1F5A5F1800501FB12041B3C1E
:100B000002D56442012000E00020DFF898A0804672
:100B10000027FA44AAF1BE0A0EE0E0070AD03246E6
:100B2000684607EB470101230AEB810101F069FEEA
:100B30008DE8070064107F1C002CEED1194F7F4414
:100B4000AE3F19E0E80715D007EB04100DF1180AC5
:100B500090E80E008AE80E00C068F04201D19819B2
:100B600008903246012306A903A801F04AFE03AB10
:100B700083E807006D10641C002DE3D14FF00103E2
:100B800032466946B8F1000F03A802D001F024FEF6
:100B900001E001F036FEC9E90001C9F808200AB0F9
:100BA000BDE8F08788290000004870471000002049
:100BB0007546FFF7F9FFAE4605006946534620F03B
:100BC0000700854618B020B5FFF74EFBBDE8204072
:100BD0004FF000064FF000074FF000084FF0000BF9
:100BE000AC46ACE8C009ACE8C009ACE8C009ACE868
:100BF000C00921F007018D46704710B50446AFF3D8
:100C000000802046BDE81040FFF71ABB000000003E
:100C100030B44FF0013C50F8042B51F8043BCCFAAF
:100C200052F4D51A20D1FCB950F8042B51F8043BEA
:100C3000CCFA52F4D51A17D1B4B950F8042B51F8A4
:100C4000043BCCFA52F4D51A0ED16CB950F8042BEF
:100C500051F8043BCCFA52F4D51A05D1002CDAD065
:100C600030BC4FF00000704729BAB1FA81F111F0A1
:100C70001801D1F120008440F2D1CA40CB4012F0DB
:100C8000FF0213F0FF0330BCD01A7047014918204F
:100C9000ABBEFEE7260002007047000010B540F230
:100CA0008804C2F20004204600F03EF920460521E7
:100CB00000F0DAF8204600F0D3F810BD72B600BF9D
:100CC000FEE700002DE9F04186B000248020C4F248
:100CD000020401AD01900126022720462946029612
:100CE000CDE9037700F0A2F920462946CDE9016657
:100CF000CDE9037700F09AF9042001A9C1C120468B
:100D00002946049700F092F9082001A9C1C12046A4
:100D10002946049700F08AF9102001904FF000084E
:100D200020462946CDE90286049700F07FF920206D
:100D3000CDE9010820462946CDE9036700F076F9A0
:100D40004020CDE9010820462946CDE9036700F09F
:100D50006DF906B0BDE8F08170B581B00022009257
:100D600090F83C20012A01D1022156E00E680122B0
:100D70001FFA86FC80F83C204FEA4C0212FA86F3F8
:100D800002680A2E32BF10321E3B0C324FF0070EA3
:100D900015680EFA03F4A54315608D68146805FA0A
:100DA00003F3234313604968062906D8026801EB60
:100DB0008101053902F134030AE00C2901EB8101BC
:100DC000026887BF413902F12C03233902F1300355
:100DD0001F221C688A4024EA02021A601A680CFA70
:100DE00001F1114342F2043E1960C4F2010E0168A0
:100DF000122EAEF5417208BF914205D1DEF80030E7
:100E000043F48003CEF8003026F00103102B08BF16
:100E1000914205D0002180F83C10084601B070BD19
:100E2000DEF80010102E41F40001CEF80010F1D1D0
:100E300040F20001C2F2000109684DF68362C4F27B
:100E40001B32A1FB0212910C01EB8101490000BF92
:100E5000009100990029DDD000990139F8E70000E0
:100E60000068C06C70470000F0B581B004460068AF
:100E70000D468268520544BF80685FEAC0502BD49B
:100E800000F0AEF921680A68920715D406466F1C77
:100E900008E000BF20680068800727D5216808683F
:100EA000800709D4002FF9D0002DF3D000F098F975
:100EB000801BA842EED8F1E76FF012000860206CAA
:100EC00040F400702064886810F0405F01D1207EFB
:100ED000B0B1002001B0F0BD206C40F020002064D3
:100EE000002084F83C00012001B0F0BD206C40F0EF
:100EF00004002064002084F83C00032001B0F0BD11
:100F0000C86A10F4700F02D088684005E1D4206CE4
:100F100020F480702064206CC004DAD4206C40F08F
:100F200001002064D5E7000081B00021009190F815
:100F30003C10012902BF022001B070470122016864
:100F400080F83C208A68D20718D18A684DF68363FE
:100F500042F001028A6040F20002C2F2000212680E
:100F6000C4F21B33A2FB03239A0C02EB420200BF24
:100F70000092009A12B1009A013AF9E78B68026C6C
:100F8000DB0707D142F010010164416C41F001011F
:100F9000416434E040F201739A4302F580720264C6
:100FA0004A68520504D5026C012363F30D320264D2
:100FB000026C4FF0000CD2044FF0000244BF426CB0
:100FC00022F0060242F20003426480F83CC06FF057
:100FD0002200C4F201030860D3F80403C00606D05F
:100FE00099420CD1986810F0405F08D103E08868FE
:100FF00010F0405F03D1886840F080408860002096
:1010000001B07047B0B5044600F0EAF8054640F27A
:101010000400C2F200000078611C18BF044400BF45
:1010200000F0DEF8401BA042FAD3B0BD2DE9F04F2E
:1010300083B000F13E4202F1FF724FEAB22241F268
:1010400000070192C4F2020707224FF0010E0025AB
:101050004FF0000A4FF00008B84208BF0422009287
:101060000AE000BF08F101080AF1040AB8F1100F04
:1010700005F1020500F0A4800C680EFA08FB14EAE2
:101080000B09EFD04C6804F0030CACF1010EBEF17B
:10109000010F11D80322876802FA05F6CA68B74320
:1010A000AA403A4382604268C4F3001722EA0B0266
:1010B00007FA08F73A434260BCF1030F1CD0C2683C
:1010C00003238E6803FA05F7BA4306FA05F73A4395
:1010D000BCF1020FC2600FD16FF0030202EA5802A6
:1010E00002440AF01C060F23176A03FA06F40B6980
:1010F000A743B3403B431362026803234F68AB40EE
:101100009A4307F00303AB401A4317F4403F4FF0F4
:10111000010E0260A6D0002243F644030292C4F2FC
:1011200002031A6843F6004442F480421A601A68C7
:10113000C4F2010402F480420292029A28F00302EF
:101140004FF6084B2244CFF6FF7B52F80B300AF0E3
:101150000C070F26BE4023EA060C019B009E042BC1
:1011600038BF1E4606FA07F747EA0C0342F80B3071
:10117000A2684B6842EA090743F60C4CDE0258BFEE
:1011800022EA0907A760C4F2010CDCF800209E02E5
:1011900042EA090758BF22EA0907CCF800706268E2
:1011A0009E0342EA090758BF22EA090767602268DE
:1011B000DB0342EA090358BF22EA0903236051E72F
:1011C00003B0BDE8F08F00000069084018BF01209F
:1011D00070470000002A08BF0904816170470000C1
:1011E00040F2E000C2F200000068704740F20400E4
:1011F00040F2E001C2F20000C2F2000100780A6889
:10120000104408607047000080B543F60040C4F207
:101210000200016841F400710160016841F48061DD
:101220000160032000F042F80F2000F005F800F004
:101230002BF8002080BD0000B0B540F20402C2F2DD
:10124000000240F200011278C2F200014FF47A73FA
:101250000968B3FBF2F20446B1FBF2F1084600F074
:10126000B1FA0F2C4FF001050CD858B94FF0FF30F0
:1012700021460022002500F009F840F20800C2F2E1
:10128000000004602846B0BD7047000070B51446E9
:101290000D46064600F036FD2946224600F072FC57
:1012A0000146304600F036FD70BD000080B500F00C
:1012B00043FD80BD2DE9F041002800F08B8043F60E
:1012C0000808C4F202080446D8F8F8030D4600F0F6
:1012D0000700884207D288F8F853D8F8F80300F0DE
:1012E0000700A84276D12068810717D5410705D5A8
:1012F000D8F8001041F4E051C8F80010010705D5F6
:10130000D8F8001041F46041C8F80010D8F8001077
:10131000A26821F0F0011143C8F80010C0073FD1C6
:10132000D8F8F80300F00700A84207D988F8F85366
:10133000D8F8F80300F00700A8424BD12068410715
:1013400007D5D8F80010E26821F4E0511143C8F83D
:101350000010000708D5D8F80000216920F460408B
:1013600040EAC100C8F8000000F054F8D8F80010B6
:1013700043F27442C1F30311C0F60002515C40F223
:10138000000220FA01F140F20800C2F200000068F9
:10139000C2F200021160FFF74FFF0020BDE8F081AC
:1013A0006068811E022907D258F8081C89015CBFB9
:1013B0000120BDE8F08110E0012807D158F8081C91
:1013C00089035CBF0120BDE8F08106E058F8081CE5
:1013D000890702D40120BDE8F081D8F8001021F07F
:1013E00003010843C8F80000FFF7FAFE064641F281
:1013F000883700BFD8F80000616800F00C00B0EB3F
:10140000810F8DD0FFF7ECFE801BB842F2D903208C
:10141000BDE8F08110B543F60404C4F2020460682C
:1014200000F00C0008280AD0042819BF42F200403E
:10143000C0F2F40047F64000C0F27D1010BD2068F5
:1014400021682368490247F64001C0F27D1100F08F
:101450003F02C3F388105CBF42F20041C0F2F401C6
:10146000A1FB00010023FEF711FF21680222C1F356
:10147000014102EB4101B0FBF1F010BD2DE9F0415B
:1014800082B0002800F0A2800446007843F60006EF
:10149000C007C4F2020643D0B06800F00C00042874
:1014A00005D1306880033BD56068C8BB8EE0B0686A
:1014B00000F00C00082802D170684002F1D4656881
:1014C000B5F5A02F0AD0B5F5803F0BD0306820F4D9
:1014D00080303060306820F4802006E0306840F4CE
:1014E00080203060306840F480303060FFF778FE54
:1014F000002D054611D000BF3068800310D4FFF7DF
:101500006FFE401B6428F7D922E100BFFFF768FE99
:10151000401B64284FF0030055D830688003F5D491
:10152000207880071AD5B06810F00C0F09D0B06889
:1015300000F00C00082840F08A807068400200F13A
:1015400086803068800702D5E06801283ED1306887
:10155000216920F0F80040EAC100306020780007DF
:1015600038D4207840074CD4A5695DB3B06800F04A
:101570000C00082840F09E80012D27D07068E1699A
:1015800000F480028A4221D1216A00F03F028A429F
:101590001CD147F6C071626A0140B1EB821F15D1C0
:1015A000A26A0023CFF6FF7303EBC23200F440318E
:1015B0006FF30F02914209D1E16A00F07060B0EB65
:1015C000016F03D1002002B0BDE8F081012002B01C
:1015D000BDE8F0816069002840F20000C4F24720B5
:1015E00057D00121C0F8801EFFF7FAFD054600BF65
:1015F000706F8007B5D4FFF7F3FD401B0228F7D9C1
:10160000A6E0306C10F080580AD100200190306CB8
:1016100040F080503064306C00F0805001900198B0
:1016200047F20007C4F200073868C00524D43868C0
:1016300040F480703860FFF7D3FD05463868C00578
:101640001AD4FFF7CDFD401B0228F7D980E0E068EF
:10165000002851D00020C4F2472001210160FFF78B
:10166000BFFD0546306880073FF571AFFFF7B8FD55
:10167000401B0228F6D96BE0A568052D50D0012D3E
:1016800052D0306F20F001003067306F20F004003E
:101690004DE00021C0F8801EFFF7A2FD054600BF07
:1016A000706F80077FF55DAFFFF79AFD401B022842
:1016B000F6D94DE00027C4F2472700203866FFF72F
:1016C0008FFD022D05460BD13068800158D5FFF7FC
:1016D00087FD401B02284FF00300F5D973E700BFD8
:1016E000306880017FF56EAFFFF77AFD401B02285E
:1016F0004FF00300F4D966E70020C4F24720002130
:101700000160FFF76DFD0546306880077FF526AF65
:10171000FFF766FD401B02284FF00300F4D952E7A3
:10172000306F40F004003067306F40F001003067E8
:10173000FFF756FD002D054641F2883714D000BF53
:10174000306F800713D4FFF74BFD401BB842F7D929
:10175000032002B0BDE8F081FFF742FD401BB84214
:101760004FF003003FF62FAF306F8007F4D4B8F18D
:10177000000F7FF4F9AE306C20F080503064F3E657
:1017800004F11C052FCD08430021CFF6FF7140EA7C
:10179000821001EBC3316FF30F0140EA056008438B
:1017A000706001203866FFF71BFD04463068800139
:1017B0003FF508AFFFF714FD001B02284FF00300B0
:1017C000F4D900E780B500F0F3F980BD80B50120C1
:1017D00000F004F8052000F073F880BD10B5044651
:1017E0000020C4F202004FF400710022FFF7F2FC67
:1017F000200900F005F804F00F0000F001F810BD1A
:10180000B0B540F200440546C4F20204A4F580607D
:1018100005F008024FF48071FFF7DCFC05F00402CC
:1018200020464FF48061FFF7D5FC05F00202204608
:101830001021FFF7CFFC05F0010220462021FFF721
:10184000C9FC04F58064204680210122FFF7C2FC18
:10185000322000F039F8204680210022FFF7BAFC40
:10186000322000F031F8B0BD80B540F27302C2F210
:101870000002012988BF0021117007A2515C40F2CB
:101880007202C2F200021070084440F08000C0B240
:10189000FFF7A4FF80BD00BF0040145410B50446FC
:1018A0000020C4F202004FF400710122FFF792FC05
:1018B0002009FFF7A5FF04F00F00FFF7A1FF10BDFF
:1018C00080B5FFF79FFB80BD2DE9F04381B04EF25C
:1018D0001808CEF2000858F8041C44F6D35201311F
:1018E000C1F26202A1FB021204469709FFF778FCDD
:1018F000D8F800100546B1FBF7F64FF47A7900BF2F
:10190000FFF76EFCD8F80010401BB1FBF7F1711A1D
:1019100000FB0910A042F3D301B0BDE8F083000042
:1019200080B540F27000C2F20000017841F004027C
:10193000027041F00C00C0B2FFF750FF80BD000004
:101940002DE9F04385B00220002503904FF400708C
:10195000C4F202056E464FF001084FF000090090F6
:1019600028463146CDF80480CDF80890FFF75EFB9D
:101970008020009005F500603146FFF757FB0820F6
:10198000009028463146FFF751FB05F5806720247B
:10199000384631460094FFF749FB10200090384646
:1019A0003146FFF743FB4FF48060009038463146E4
:1019B000FFF73CFB4FF48070009028463146FFF75C
:1019C00035FBFFF70DFCC72807D800BF0120FFF744
:1019D00077FFFFF705FCC828F8D340F27200C2F287
:1019E000000080F8009040F27300C2F2000040F264
:1019F000710580F80090C2F20005032085F8008090
:101A0000FFF7FEFE0520FFF75BFF0320FFF7F8FE60
:101A10000520FFF755FF0320FFF7F2FE0520FFF733
:101A20004FFF0220FFF7ECFE0520FFF749FF287863
:101A3000002818BF28242046FFF7D0FE40F270008F
:101A4000C2F2000004210170FFF76AFFFFF7BEFE3B
:101A50000620FFF7C3FE0520FFF732FF05B0BDE803
:101A6000F0830000F0B581B01446FFF7FDFE20784A
:101A700088B340F2720540F273070134C2F20005E8
:101A80000026C2F2000707E0FFF708FF28780130C0
:101A9000287014F8010BF0B12878202807D3387883
:101AA0002E7001303870C1B20020FFF7DDFE14F84F
:101AB000010C0D280AD00A28E6D13878411C287874
:101AC0003970C9B2FFF7D0FEE3E700BF39780020D4
:101AD000FFF7CAFEDDE701B0F0BD000080B582B0BF
:101AE000002243F644000192C4F20200016801237F
:101AF00041F480710160006842F2000100F48070DE
:101B00000190019840F28800C2F20000C4F2010185
:101B10004FF0807CC0F6007380E8061040F2D001E0
:101B2000C0E90A320123C2F20001027680F82020C7
:101B3000C36180F83020C0E903224261C1E900336B
:101B40008A60FFF709F902B080BD000070B586B069
:101B50000024C4F20204002520460221002205953B
:101B6000CDE90355CDE901550226FFF733FB0120EE
:101B7000CDE9020501A9204601960495FFF756FA22
:101B800006B070BD00F0070080F00703042B28BFEB
:101B900004234FF0FF3C03380CFA03F338BF002056
:101BA000994381400CFA00F022EA00000843704794
:101BB000B0B501380024B4EB106F1CBF0120B0BDDC
:101BC0004EF21005CEF2000568604FF0FF300F2195
:101BD00000F0A0F80720AC6028602046B0BD0000EF
:101BE00080B5FFF703FB80BDB0B592B006AC2046D0
:101BF0003021FEF787FC002543F640000595CDE92E
:101C00000355CDE901550095C4F202000168022296
:101C100041F080510160006800F080500090009811
:101C200047F200000095C4F20000016862F38F31B2
:101C30000160006800F44040009000980120099085
:101C400010200A90204606920C95FFF717FC68B901
:101C50000F20CDE9010501A80021CDE90355059527
:101C6000FFF728FB002804BF12B0B0BDFFF726F82D
:101C700043F60400C4F20200416801F00C0242F293
:101C80000041082AC0F2F40106D0042A1DD147F60B
:101C90004001C0F27D1118E002680368520247F665
:101CA0004002C0F27D1203F03F0358BF0A460168AC
:101CB000B2FBF3F20368C1F388115143C3F301424D
:101CC000022303EB4202B1FBF2F140F20002C2F246
:101CD00000021160406843F27441C0F30310C0F683
:101CE0000001085C116821FA00F0106070470000E4
:101CF0004EF68850CEF20000016841F47001016098
:101D0000704700004EF60C50CEF200000068C0F3A1
:101D1000022070474EF6145300F00F02CEF200037B
:101D200009011A4400F16043B0F1FF3FC8BF03F559
:101D300064421170704700004EF60C51CEF2000163
:101D40000A684FF6FF031A4060F30A2242F08060EF
:101D500040F0FD700860704784B02A208DF80F00B5
:101D6000FFF786FFFFF750FA002043F6300102909C
:101D7000C4F202010A6842F001020A600A6802F035
:101D800001020292029A01900A6842F002020A607D
:101D90000A6802F002020192019A0090086840F07D
:101DA00004000860086800F0040000900098FFF745
:101DB0001BFFFEF787FFFFF7C9FEFFF78FFEFFF758
:101DC000BFFD35A201200021FFF74CFE36A22820DE
:101DD0000021FFF747FE4FF47A70FFF771FDFFF720
:101DE000F5FC35A201200321FFF73CFE3AA2282092
:101DF0000721FFF737FE40F20C0540F2780640F26B
:101E000080074FF0050A0DF10F04C2F20005C2F27F
:101E10000006C2F200074FF0020B4FF004084FF02B
:101E2000060902E0C820FFF7EDF800F065F88DF82C
:101E30000F00082005212246FFF714FE9DF80F0031
:101E400031380528EED8DFE800F006091E2124030A
:101E5000C5F80090E6E70120286001E0C5F800B071
:101E6000FFF7B4FC00F060F901F03AF841EC100B18
:101E700086ED000B00F0C8F901F032F841EC100BD0
:101E800087ED000BCEE703202860CBE7C5F8008084
:101E9000C8E7C5F800A0C5E749443A2039393234CB
:101EA000333031370000000049443A2039393234A8
:101EB0003330333400000000312E53696E2020325D
:101EC0002E537175617265202020332E5472696122
:101ED0006E676C6500000000342E7C53696E7C20B8
:101EE0002020352E536177746F6F74682020203660
:101EF0002E72616D7000000010B50024C4F202045F
:101F0000204680210022FFF765F9204601210122A9
:101F1000FFF760F9204604210122FFF75BF9204614
:101F200008210122FFF756F920461021FFF74CF94E
:101F3000002800F08D8020462021FFF745F9002879
:101F400000F0908020464021FFF73EF9002800F085
:101F50009380204680210122FFF73CF92046012191
:101F60000022FFF737F9204604210122FFF732F95A
:101F7000204608210122FFF72DF920461021FFF706
:101F800023F9002800F0828020462021FFF71CF969
:101F9000002800F0858020464021FFF715F9002831
:101FA00000F08880204680210122FFF713F92046A7
:101FB00001210122FFF70EF9204604210022FFF73C
:101FC00009F9204608210122FFF704F920461021D3
:101FD000FFF7FAF8002877D020462021FFF7F4F821
:101FE00000287BD020464021FFF7EEF8002800F0C3
:101FF0007F80204680210122FFF7ECF82046012156
:102000000122FFF7E7F8204604210122FFF7E2F85A
:10201000204608210022FFF7DDF820461021FFF7B7
:10202000D3F800286DD020462021FFF7CDF80028F6
:1020300070D020464021FFF7C7F8002872D1204613
:102040004021FFF7C1F800284FF02300F7D069E0E6
:1020500020461021FFF7B8F80028F9D03120C0B28F
:1020600010BD00BF20462021FFF7AEF80028F9D0B0
:102070003220C0B210BD00BF20464021FFF7A4F8B7
:102080000028F9D03320C0B210BD00BF2046102177
:10209000FFF79AF80028F9D03420C0B210BD00BF75
:1020A00020462021FFF790F80028F9D03520C0B253
:1020B00010BD00BF20464021FFF786F80028F9D068
:1020C0003620C0B210BD00BF20461021FFF77CF8BB
:1020D00000284FF03700F7D024E000BF2046202131
:1020E000FFF772F800284FF03800F7D01AE000BF71
:1020F00020464021FFF768F800284FF03900F7D05C
:1021000010E020461021FFF75FF800284FF02A006A
:10211000F7D007E020462021FFF756F800284FF0BF
:102120003000F7D0C0B210BD2DE9F04F81B02DEDD9
:10213000028B88B09FED2C0B9FED2D1B51EC100BEB
:1021400057EC116B9FED2C0B9FED2D1B5BEC10AB37
:1021500055EC114B0DF10C08CDE90110FEF79EFD79
:10216000814600EE109AB8EE400A10EE100A01F017
:10217000B7F8DDE9013200F059FD32463B4600F088
:10218000C3FE52465B4600F0BFFE32463B4600F0BF
:102190004DFD32463B4600F0A1FC22462B4600F0A6
:1021A000B3FE0B4641EC180B43F284410246404615
:1021B000C0F60001FEF7E2F8142007214246FFF7BF
:1021C00051FCFFF799FE2328C8D140F27801C2F2F2
:1021D0000001484681ED008B08B0BDEC028B01B0D8
:1021E000BDE8F08F00BF00BF000000000048854040
:1021F00000000000000014400000000000C0574034
:1022000000000000000059402DE9F04F81B02DED95
:10221000028B88B09FED2A0B9FED2B1B51EC100B0E
:1022200057EC116B9FED2A0B9FED2B1B5BEC10AB5A
:1022300055EC114B0DF10C08CDE90110FEF72EFD08
:10224000814600EE109AB8EE400A10EE100A01F036
:1022500047F8DDE9013200F0E9FC32463B4600F088
:1022600053FE52465B4600F04FFE32463B4600F0BE
:10227000DDFC22462B4600F031FC0B4641EC180BEE
:1022800043F2844102464046C0F60001FEF776F86C
:10229000142007214246FFF7E5FBFFF72DFE232818
:1022A000CCD140F28001C2F20001484681ED008BA2
:1022B00008B0BDEC028B01B0BDE8F08F00BF00BFDD
:1022C00000000000004885400000000000001440AD
:1022D0000000000000388F40000000000000F03FC8
:1022E0005FEA400C08BF91F0000F4FEA8C234FEAE1
:1022F000C12243EA51514FEA1C5018BF00F5F0408B
:102300004FEA300018BF41F000415FEA6C5C00F01A
:102310002980BCF1FF3F08BF40F080407047130C9C
:1023200006BF12044FF0100C4FF0000C130E04BF48
:1023300012020CF1080C130F04BF12010CF1040C73
:10234000930F04BF92000CF1020CD30F04BF520094
:102350000CF1010C11464FF00002A0F11F00A0EBA0
:102360000C00704711F0004F08BF704731F000417A
:102370003FF4D5AF0B0C06BF09044FF0100C4FF023
:10238000000C0B0E04BF09020CF1080C0B0F04BF6C
:1023900009010CF1040C8B0F04BF89000CF1020C35
:1023A000CB0F04BF49000CF1010CCCF1200322FA41
:1023B00003F341EA030102FA0CF2A0EB0C0000F176
:1023C0000100704723F07F4720F07F4C80EA030034
:1023D00000F00040ACEB070303F57C5303F1FF036F
:1023E0002DE9804909B44FEA144324EA03484FEA2F
:1023F000154B25EA0B4E0FF2042606EB13273E7809
:1024000003FB0667C7F5000707FB06F64FEAD6464B
:1024100006F102064FEA543707FB066CCCF1005C6C
:102420004FEA1C472CEA074C0CFB06F507FB06F4A9
:1024300004EB15464FEA961649085FEA320234BFAC
:1024400000204FF000404FEAD13706FB07FC4FEA6F
:102450001C4C0CFB0BF7D21B03FB0CF761EB0701C9
:102460000CFB0EF7B0EB074072EB17420CFB08F7C2
:1024700034BFA2EB0742B2EB074261EB17414FEAD0
:102480000C444FEA910706FB07FC4FEA1C4C0CFB7F
:102490000BF7B0EBC74072EB573203FB0CF734BFBE
:1024A000A2EBC742B2EBC74261EB57310CFB0EF710
:1024B000B0EBC70072EB57720CFB08F734BFA2EB0E
:1024C000C702B2EBC70261EB57714FEA816141EA83
:1024D00092114FEA826242EA90124FEA806004EB66
:1024E000CC04039F4FEAD13706FB07FC4FEA1C4C94
:1024F0000CFB0BF7D21B03FB0CF761EB07010CFB8A
:102500000EF7B0EB074072EB17420CFB08F734BF35
:10251000A2EB0742B2EB074261EB17414FEA8C5541
:1025200004EB9C244FEA910706FB07FC4FEA1C4C86
:102530000CFB0BF7B0EBC74072EB573203FB0CF709
:1025400034BFA2EBC742B2EBC74261EB57310CFB81
:102550000EF7B0EBC70072EB57720CFB08F734BFF5
:10256000A2EBC702B2EBC70261EB57714FEA816180
:1025700041EA92114FEA826242EA90124FEA806089
:1025800015EB4C2544F100044FEAD13706FB07FC5C
:102590004FEA1C4C0CFB0BF7D21B03FB0CF761EB57
:1025A00007010CFB0EF7B0EB074072EB17420CFB78
:1025B00008F734BFA2EB0742B2EB074261EB1741C9
:1025C0004FEA813141EA92414FEA823242EA904237
:1025D0004FEA80304FEA0C7615EB1C1544F10004ED
:1025E00048EA03434EEA0B484FF0000EB2EB080CEA
:1025F00071EB030724BF624639464EEB0E0E4FF0D7
:10260000000B0018524149414BEB0B0BB2EB080C8D
:1026100071EB03077BF1000B24BF624639464EEB9A
:102620000E0E4FF0000B0018524149414BEB0B0BC3
:10263000B2EB080C71EB03077BF1000B24BF624681
:1026400039464EEB0E0E51EA020718BF46F001065E
:1026500016EB0E7655F1000254F1000103D5BDE8EA
:102660008901BDE80088BDE88901BDE80048B619C8
:10267000524141EB0101A3F10103704780807F7E4D
:102680007D7C7B7A797877767675747372717170E8
:102690006F6E6E6D6C6C6B6A6A696868676666659A
:1026A0006464636362616160605F5F5E5E5D5D5C28
:1026B0005C5B5B5A5A595958585757565655555599
:1026C0005454535352525251515050504F4F4F4EF9
:1026D0004E4D4D4D4C4C4C4B4B4B4A4A4A49494947
:1026E0004848484747474746464645454544444489
:1026F0004443434343424242424141419C46002BB2
:1027000030D477002BD04FEA37071CB503B44FF015
:1027100010004FF01001BAF1000F06D0BCF1000F0D
:10272000DCBF40F0080040F008014FF000000FBC93
:10273000BDE810400BF1010BBBF1010F08BF5FEAD0
:10274000170722BF12F1010211F101014FF0004100
:1027500043F1000300F0004043EA00007047F9D362
:102760005708D0E746EA06464FEA164613F1400FEF
:102770001FDD13F1200FDFBF16430A46002120336F
:102780005B42BED0C3F1200746EA06464FEA164632
:1027900002FA07F746EA070622FA03F2C3F1200716
:1027A00001FA07F742EA070221FA03F14FF00003AA
:1027B000A7E746EA020646EA06464FEA164646EA12
:1027C0000106BCBF46EA0646360C4FF000034FF048
:1027D00000024FF0000194E72DE9804C70B49A4656
:1027E000934691E8380007C831EA400C48BF34EA04
:1027F000430C03D5FFF7E6FDFFF780FFF0BCBDE813
:10280000008C2DE9804C70B49A46934691E83800CC
:1028100007C810F0804F08BF13F0804F03D100F0BD
:1028200005F8FFF76BFFF0BCBDE8008C20F07F4798
:1028300023F07F4C80EA030000F0004007EB0C031C
:10284000A3F57C53A3F1FE0392F0000F00F0B380D8
:1028500095F0000F00F077802DE901494FEA114013
:1028600021EA00484FEA144624EA064700FB06FC2A
:1028700008FB06F607FB08F818EB06484CEB164C6D
:1028800000FB07F718EB07484CEB17404FEA124BD9
:1028900022EA0B4E4FEA154625EA06470BFB06FCDB
:1028A0000EFB06F607FB0EFE1EEB064E4CEB164C1F
:1028B0000BFB07F71EEB074E4CEB174B18EB0B0807
:1028C00040F1000018EB0E0B58EB000840F100003F
:1028D0008F1A4FF000014FF000063CBFC943661B42
:1028E00014BFB5EB040C00213CBFC943F61B4FEAF3
:1028F000174427EA04454FEA1C472CEA074C04FB1F
:10290000076205FB07F70CFB05F616EB074642EBE3
:10291000174204FB0CFC16EB0C4642EB1C421BEB73
:10292000060658EB020241414EEA8E0E46EA9E062A
:1029300001D5BDE80189B619524141EB0101A3F16E
:102940000103BDE801894FEA144524EA05464FEA30
:10295000114721EA074C05FB07F406FB07F70CFBC0
:1029600006F111EB074144EB174405FB0CFC11EB9E
:102970000C4144EB1C444FEA124722EA074C05FB8A
:1029800007F206FB07F70CFB06F616EB074642EBD1
:10299000174205FB0CFC16EB0C4642EB1C456A1873
:1029A00054F1000148BF7047B619524141EB010193
:1029B000A3F10103704795F0000F37D04FEA1142A1
:1029C00021EA02464FEA144724EA074C02FB07F1CA
:1029D00006FB07F70CFB06F414EB074441EB174129
:1029E00002FB0CFC14EB0C4441EB1C414FEA154775
:1029F00025EA074C02FB07F506FB07F70CFB06F67A
:102A000016EB074645EB174502FB0CFC16EB0C4694
:102A100045EB1C42121951F1000148BF7047B6192D
:102A2000524141EB0101A3F1010370474FEA144504
:102A300024EA05464FEA114721EA074C05FB07F156
:102A400006FB07F70CFB06F212EB074241EB1741BE
:102A500005FB0CFC12EB0C4251EB1C414FF0000645
:102A600048BF7047921841EB0101A3F10103704781
:102A700003B401984100009850EAC12018BF042017
:102A80004A0D18BF40F0010040F2FF72B2EB515FF7
:102A900008BF40F00200012808BF052002B07047BF
:102AA00030380A2801D2012070470020704700000A
:102AB00010B500290AD00878002807D005487844C6
:102AC000FEF7A6F8002801D0002010BD0248784487
:102AD00010BD0000EE090000E609000010B591EA03
:102AE000030F48BF83F0004300F11483841A71EB95
:102AF000030C05D2121943EB0C03001B61EB0C0114
:102B00004FEA1154A4EB135CDFF81CE11EEA430FFB
:102B100018BF9EEA445F00F0748021EA045123EA62
:102B20000E0343F48013DCF1200E32D322FA0CFEA4
:102B300010EB0E0023FA0CFE41EB0E01CCF1200E3F
:102B400003FA0EFE10EB0E00CCF1200E51F1000145
:102B5000B1F5801F32D201EB045112FA0EF2BDE83A
:102B6000104058BF7047401C38BF5FEA420218BF90
:102B70007047002814BF20F0010041F100014FEA26
:102B8000410313F5001F38BF7047A1F1C04100F0A9
:102B9000B3BA012A43EB0302ACF1200CDCF11F0EA7
:102BA00032BF4FF0000E23FA0CF310EB030041EBA1
:102BB0000451B4EB115FD0D0A1EB045101F58011A9
:102BC000490801EB04515FEA30000ED350F10000D8
:102BD00038BF12FA0EFE08D1BDE81040C9E7401C0C
:102BE00038BF5FEA4202CAD1C3E7BDE810404FEAEE
:102BF000410313F5001F38BF7047A1F1C04100F039
:102C00007BBA9EEA445F08D011EA5E0FBDE810402F
:102C100004BF01F0004100207047BDE8104070B5CE
:102C200000F01CFA64FBBE3E0000E0FF2DE9C0414D
:102C300030B4DFF8A4C23CEA111418BF3CEA131404
:102C400000F0ED801CEA111481EA030544EAD57412
:102C500018BF1CEA131500F0C880A4EB050404F1AA
:102C60007F7404F500344FF0004545EAC12145EA80
:102C7000C32341EA505143EA52534FEAC0204FEA7E
:102C8000C222994208BF904200F09D804FEA13652E
:102C90000FF24416765D4FEA134506FB05F7C7F1C0
:102CA000807706FB07F74FEAD737A7FB0368764222
:102CB000A7FB06CEC8F5803838BFA8F1010807FB8E
:102CC00008E6A6FB028C4FF0000EE6FB03CEDCF11B
:102CD000000CCEF1004E38BFAEF1010EA6FB0C5831
:102CE0004FF00007E6FB0E87A1FB08C6A0FB07CE4E
:102CF00016EB0E064FF0000545F10005E1FB0765F8
:102D000015F1E04E7EBFA4F580345FEA46066D41C2
:102D100016F1800745F100054FEA172747EA0567D6
:102D20004FEA15254FEA0666A6F1DE46B6F1805F4A
:102D300020D9384605EBC47124F0010C01EB0C11CD
:102D4000BCF1FE6F02D8F0BCBDE8008124425CBF3C
:102D500001F5801E9EEAC47F02D4F0BCBDE800816C
:102D6000244200F13980A1F1C041F0BCBDE800412E
:102D700000F0C2B94FEAD02040EA41504FEAD121D9
:102D80004FEAD22242EA43524FEAD323A7FB0286FC
:102D900007FB036605FB02661EEA0E0F58BFA6EB93
:102DA0000056B6EB00564FEA520E4EEAC37E18EBC1
:102DB0000E0E56EB530EBCD518EB02085E417F1C7D
:102DC00055F10005B5E74FF480154FF000074FF0BF
:102DD00000064FF00008ACE701F1C04101F00041EE
:102DE0004FF00000F0BCBDE800810CEA131511EAB9
:102DF0000C1F00D00CE013EA0C1F00F026804FF0EF
:102E0000000081EA030101F00041F0BCBDE800814F
:102E1000F0BCBDE8004181EA030100F06DB9F0BCEF
:102E2000BDE8004170B500F019F900BF097EFC3E15
:102E300000F007B84FF0000081EA030101F0004103
:102E4000704781EA030100F057B9F0BCBDE80041CA
:102E500022494FF000007047FFFDFBF9F7F5F4F24F
:102E6000F0EEEDEBE9E8E6E4E3E1E0DEDDDBDAD825
:102E7000D7D5D4D3D1D0CFCDCCCBCAC8C7C6C5C483
:102E8000C2C1C0BFBEBDBCBBBAB9B8B7B6B5B4B39A
:102E9000B2B1B0AFAEADACABAAA9A8A8A7A6A5A485
:102EA000A3A3A2A1A09F9F9E9D9C9C9B9A99999849
:102EB0009797969595949393929191908F8F8E8EEC
:102EC0008D8C8C8B8B8A8989888887878685858479
:102ED00084838382828181800000FF070000F87F65
:102EE000B0FA80F310FA03F10AD0C3F11D0303F521
:102EF00080634FEA03524FEA415002EBD121704701
:102F00004FF000007047000070B5DFF848C11CEAC0
:102F1000111E1EBF1CEA13159EEA0C0F95EA0C0F3A
:102F200000F06F8081EA03044EEAD47EAE4421EAC9
:102F30004C1123EA4C1341F4801143F48013AEF199
:102F40007F7EA1FB024CA0FB0365361955EB0C05F7
:102F5000A1FB034C4CF10003A0FB021C16EB0C067A
:102F6000654153F10003094218BF46F0010613F40E
:102F7000007F0BD14FEA03314FEA053041EA15518A
:102F800040EA165034036FF003020AE04FEAC3210F
:102F90004FEAC52041EA555140EA5650F4026FF01D
:102FA000020202EB2E4201EB025585EACE710AD0F5
:102FB0005FEA440C18BF24F0004450F1000041F1D6
:102FC000000120EAD47040F2FE7C624500D270BD60
:102FD000A84214BF4FF080444FF04044002E08BF79
:102FE0000024BEF1806FA8BFA1F1C041BDE87040D0
:102FF00080F2828001F1C04101F000414FF00000F9
:1030000070470CEA13159EEA0C0F18BF95EA0C0FD7
:1030100006D081EA030E4FF000000EF0004170BDB3
:1030200000F01CF88900013E00F007B800F009B874
:103030004FEA430C5FEA5C5C08D081EA030100F0D0
:103040005BB84FEA410C5FEA5C5CF6D102494FF095
:10305000000070470000FF070000F87F0EF1020E2D
:103060002EF0030E5EF8046B364205D4012A43EBC2
:10307000030515F5001F12D8012841EB010C1CF5C2
:10308000001F0CD80ED14FEAD17C0CEB4C0C0CF18C
:10309000020C15F5001F08BF4CEBD37C04E04FF089
:1030A000080C01E04FEAD37C0CEB4C0526FA05F640
:1030B00006F00706B6F1040C06D20EEB860CBDE84E
:1030C00070404CF0010C6047DFE80CF0090B020285
:1030D0004FF00041A1F500214FF0000070BD1946EE
:1030E0001046012851EB010418BFD4F5001484BF29
:1030F000002001F0004170BD0808A0F500114FEA62
:103100003101704710B591EA030F48BF83F00043C7
:103110003FF5ECAC841A71EB030C07D28CF0004C39
:10312000121943EB0C03001B61EB0C014FEA115425
:10313000A4EB135CDFF8A4E11EEA430F18BF9EEA7C
:10314000445F00F0B48021EA045123EA6E03524246
:10315000C3EB6E0338BF5B1EDCF1200E25D322FAD1
:103160000CFE10EB0E0043FA0CFE41EB0E01CCF10D
:10317000200E03FA0EFE10EB0E00CCF1200E51F1E2
:10318000000129D401EB045112FA0EF2BDE81040FF
:1031900058BF7047401C1CBFB2F1004F7047002859
:1031A0000CBF491C20F00100704712EB020E43EBEC
:1031B000030218BF4FF0010E4EEA4202ACF1200CA0
:1031C000DCF11E0E56D943FA0CFE10EB0E00CCF1CA
:1031D0001E0E51F1FF31D5D50EF1010E12FA0EFE81
:1031E000404141EB010101EB445C5FEA5C5C10D9BA
:1031F00001EB045110EBDE7038BFBEF1004FBDE8AB
:10320000104018BF704700280CBF491C20F0010077
:10321000704734D24FEAD42C24F4006411F5001125
:103220001BD0B1FA81F20B3AA41AA41ED2F12003EA
:10323000914030FA03F31943904001EBCC7101EB5C
:103240000451002CBDE81040A8BF704701F1C041F7
:1032500001F000414FF000007047B0FA80F310FA1F
:1032600003F102D1BDE810407047E41A173C48054D
:10327000C90AE2E701EB0451BDE81040704749106C
:103280004FEA300001EB0451BDE8104002E04FF07E
:10329000000170474A0008BF0042F8D0B2F5001F95
:1032A00028BF704701F000414FF0000070479EEAD0
:1032B000445F07D011EA5E0FBDE8104004BF002153
:1032C00000207047BDE8104070B5FFF7C7FE00BF93
:1032D00040DFF63E104683F0004170470000E0FFFB
:1032E00043004FEAD30C4FEA3C0C43401FBF40075A
:1032F0000CF1605113F0FE4F70471CF0006F03D1CA
:103300000CF00041002070470CF0004343EA50707D
:1033100040EACC0010B500F00EF800BF00000092AB
:103320004FEA0001FFF7E8BE4FF00041A1F5002190
:103330004FF0000070470EF1020E2EF0030E5EF803
:10334000044B244204D44FEA4102B2F17F4F11D81A
:103350004FEA4003B3F17F4F0CD80ED14FEAD07C37
:103360000CEB4C0C0CF1020CB2F17F4F08BF4CEB94
:10337000D17C04E04FF0080C01E04FEAD17C0CEB6B
:103380004C0324FA03F404F00704B4F1040C06D24D
:103390000EEB840CBDE810404CF0010C6047DFE8F8
:1033A0000CF0070802024FF00040A0F5800010BDAD
:1033B0000846420018BFD2F1807288BF00F000407A
:1033C00010BDF1EE100A4FF6FF71C0F2C03120EAD5
:1033D000010040F04070E1EE100A7047FDF794B92B
:1033E00002400000000000A00000000005400000B6
:1033F000000000C8000000000C4000000000409CDD
:1034000000000000194000000020BCBE00000000C9
:1034100034400000BFC91B8E00000004B54000000E
:10342000504BCFD06607E2CF010000006C41000096
:103430003E8251AADFEEA73401000000D94200000D
:10344000DCB5A0E23A301F97FFFFFFFFB445000054
:10345000FD25A0C8E9A3C14FFFFFFFFFFF3F00000C
:103460000000008000000000FF3F0000000000801E
:103470000000000000000000000000000102030442
:1034800006070809252E316C66000000C8340008C4
:103490000000002010000000D0010008D83400080F
:1034A00010000020D8060000EC0100081C000000FD
:1034B00043000000F8FFFFFF0C0000000E000000BA
:1034C0000F0000002E0000000024F40001000000A6
:0834D00010000000FFFFFFFFE8
:040000050800019559
:00000001FF
